:080000000C943A000C9400007E
:100008000C9400000C9400000C9400000C94000068
:100018000C9400000C9400000C9400000C94000058
:100028000C9400000C9400000C9400000C94000048
:100038000C9400000C9400000C9400000C94000038
:100048000C9400000C9400000C9400001027E803A6
:1000580064000A00010000100001100001002534AE
:10006800640080C0020060016A000000F894EE2776
:10007800ECBBF1E0FBBFEBBFE5BFF8E1F1BDE1BDD3
:100088008DE0A2E0BB27ED938A95E9F780E094E044
:10009800A0E6ED930197E9F7ECE6F0E085919591FC
:1000A800009761F0A591B59105901590BF01F001F9
:1000B80005900D920197E1F7FB01F0CFEFE5EDBF59
:1000C800E4E0EEBFC0E6D1E00C946A00E0E0EBBBF0
:1000D800E0ECEABBE0E0E8BBECE0E7BBE8E0E5BB6E
:1000E800E4BBE0E0E2BBECEFE1BBEAE6E3BFE0E063
:1000F800E2BFECBFE1EAEFBDEAE0EEBDE0E0EDBD56
:10010800ECBDE7BDE6BDEBBDEABDE9BDE8BDE2BDBE
:10011800E5BDE4BDE3BDE5BFE4BFE9BFEAB9E0E89A
:10012800E8B9E0E0E0BFE6B9EDB9E6BF0E947E01BC
:1001380007D02F01042C052809F0FFCFFFCFFFCFF0
:100148003DD0309721F0E0E1EA930E942A01E0E0F7
:10015800F0E008950E945F01E03011F4979801C023
:10016800979A0E945F016E2FA881B9810E9466014B
:1001780011F4969801C0969A0E945F016E2FA8818B
:10018800B981E2E0F0E00E94F301DF010E9466011C
:1001980011F4DF9801C0DF9A0E945F016E2FA881D9
:1001A800B981E4E0F0E00E94F301DF010E946601FA
:1001B80011F4DE9801C0DE9A22960895EFE0F0E08F
:1001C800FA93EA93C7DFE0E0CD99E1E0F0E0089523
:1001D800E881E07111F0AC9A01C0AC98E881E07256
:1001E80011F0AD9A01C0AD98E881E07411F0AE9AB3
:1001F80001C0AE98E881E07811F0AF9A01C0AF98DD
:1002080087E08A95F1F7AA9A81E18A95F1F7AA9889
:1002180081E18A95F1F74DC0E881EA93D9DFE88159
:10022800E295E883E881EA93D3DF87EA8A95F1F7D4
:1002380040C0E2E00E946C01ECE0EA93EDDFE1E00F
:100248000E946C01E0E06E2E7E2E0895A49AA59A75
:10025800A69AA79AA29AA09AA19AAA98A898A998A1
:100268009880E881E058E0936201E881E054E093E7
:100278006301E4E1F0E0FA93EA930E94D0010E945E
:1002880075010E9475010E947501E0E2EA93A0DF02
:100298008AEF90E00197F1F7E8E2EA93BDDFE4E046
:1002A800EA93BADFE5E8EA93B7DFE6E0EA93B4DF7A
:1002B800C0DF21960895A881B981E8E0F0E00E94A6
:1002C800F3010895E2E0F0E00E94F801E6270895BE
:1002D800EA930E941001E3E0F0E0FA93EA930C94A9
:1002E800D001E0E3EA930E94EC008AEF90E00197E6
:1002F800F1F70895C198C098B99AB89815C0B898F8
:10030800B998EE270000B09B0895B19B089504D0DA
:10031800B89A02D0B99AE1E061E107C0B89AB99AEF
:1003280003D0B998F9DFB89861E26A95F1F70895B2
:1003380078E0B998F1DFB19BFECFEEDF8894B099F1
:100348000894B99AF1DFEE1F7A9599F77991772396
:1003580011F4B89801C0B89ADFDFB998E5DFB99A07
:10036800DBDFB898D9CFE99178E0EE0F10F4B898B0
:1003780001C0B89AD9DFB998CFDFB19BFECFCCDFE7
:10038800B99A7A9591F7B898C7DFB998CDDFE1E0C7
:10039800B099EE27B99AC0CFE991F991309639F022
:1003A80084EC99E00197F1F7A8953197C9F708957A
:1003B800F195E195F04008950024112490E1AA0FE9
:1003C800BB1F001C111C0E1A1F0A18F40E0E1F1E4C
:1003D80001C0A1609A9599F7FD01D001089512D046
:1003E800EBDF0EF4E5DF0895E894B7FF04C0A095AD
:1003F800B09511966894F7FDDBDFDEDFFD010EF4A2
:10040800D7DF0895E894F7FF02C0D2DF6894B7FFFA
:1004180006C0A095B095119600F8039400FA0895C7
:00000001FF
