:100000000C9456000C9400000C9400000C9400001A
:100010000C9400000C9400000C9400000C94000060
:100020000C9400000C9400000C9400000C94000050
:100030000C9400000C9400000C9400000C94000040
:100040000C9400000C9400000C9400000C94000030
:100050000C9400001027E80364000A00010000105F
:1000600000011000010001000100000025640042B1
:100070005547206F6E3A200001002D4E414E004939
:100080004E46000080C001006901660001008D013C
:100090006800090060016F00020004006A000100AE
:1000A000B10178000200B50184000000F894EE2749
:1000B000ECBBF1E0FBBFEBBFE5BFF8E1F1BDE1BD9B
:1000C0008DE0A2E0BB27ED938A95E9F780E094E00C
:1000D000A0E6ED930197E9F7E6E8F0E085919591C8
:1000E000009761F0A591B59105901590BF01F001C1
:1000F00005900D920197E1F7FB01F0CFEFE5EDBF21
:10010000E4E0EEBFC0E6D1E00C948600E0E3EBBB98
:10011000E0ECEABBE0E0E8BBECE0E7BBE8E0E5BB35
:10012000E4BBE0E0E2BBECEFE1BBEAE6E3BFE0E02A
:10013000E2BFECBFE1EAEFBDEAE0EEBDE0E0EDBD1D
:10014000ECBDE7BDE6BDEBBDEABDE9BDE8BDE2BD86
:10015000E5BDE4BDE3BDE5BFE4BFE9BFEAB9E0E862
:10016000E8B9E0E0E0BFE6B9EDB9E6BF0E945A01A8
:10017000E0E1EA930E94120188249924E2E1F0E090
:100180008E169F067CF4F401ADE8B1E0EE0FFF1F80
:10019000AE0FBF1FE1E0F0E0ED93FC93F401319668
:1001A0004F01ECCFFFCFFFCFE881E07111F0AC9AA7
:1001B00001C0AC98E881E07211F0AD9A01C0AD9831
:1001C000E881E07411F0AE9A01C0AE98E881E07861
:1001D00011F0AF9A01C0AF9887E08A95F1F7AA9A1B
:1001E00081E18A95F1F7AA9881E18A95F1F74EC0ED
:1001F000E881EA93D9DFE881E295E883E881EA9330
:10020000D3DF87EA8A95F1F741C0E2E00E94480116
:10021000ECE0EA93EDDFE1E00E944801E0E0CE2E61
:10022000DE2E0895A49AA59AA69AA79AA29AA09AB1
:10023000A19AAA98A898A998E881E093B901E058F2
:10024000E093B701E881E054E093B801E4E1F0E025
:10025000FA93EA930E94AC010E9451010E9451015D
:100260000E945101E0E2EA939FDF8AEF90E001975C
:10027000F1F7E8E2EA93BCDFE4E0EA93B9DFE5E80E
:10028000EA93B6DFE6E0EA93B3DFBFDF2196089595
:10029000EA930E94F800E3E0F0E0FA93EA930C940A
:1002A000AC01E0E3EA930E94D4008AEF90E001976A
:1002B000F1F70895C198C098B99AB89815C0B89840
:1002C000B998EE270000B09B0895B19B089504D023
:1002D000B89A02D0B99AE1E061E107C0B89AB99A38
:1002E00003D0B998F9DFB89861E26A95F1F70895FB
:1002F00078E0B998F1DFB19BFECFEEDF8894B0993A
:100300000894B99AF1DFEE1F7A9599F779917723DE
:1003100011F4B89801C0B89ADFDFB998E5DFB99A4F
:10032000DBDFB898D9CFE99178E0EE0F10F4B898F8
:1003300001C0B89AD9DFB998CFDFB19BFECFCCDF2F
:10034000B99A7A9591F7B898C7DFB998CDDFE1E00F
:10035000B099EE27B99AC0CFE991F991309639F06A
:1003600084EC99E00197F1F7A8953197C9F70895C2
:00000001FF
