:0E0000000C9448000C9400000C9400000C942A
:10000E0000000C9400000C9400000C9400000C9462
:10001E0000000C9400000C9400000C9400000C9452
:10002E0000000C9400000C9400000C9400000C9442
:10003E0000000C9400000C9400000C9400000C9432
:10004E0000000C9400001027E80364000A00010071
:10005E000010000110000100010000000000253416
:10006E006400425547206F6E3A20000080C00900A0
:10007E006001700004000400680002008D017A0027
:10008E000000F894EE27ECBBF1E0FBBFEBBFE5BF41
:10009E00F8E1F1BDE1BD8DE0A2E0BB27ED938A95BD
:1000AE00E9F780E094E0A0E6ED930197E9F7ECE73D
:1000BE00F0E085919591009761F0A591B59105902D
:1000CE001590BF01F00105900D920197E1F7FB012C
:1000DE00F0CFEFE5EDBFE4E0EEBFC0E6D1E00C946B
:1000EE007800E0E0EBBBE0ECEABBE0E0E8BBECE084
:1000FE00E7BBE8E0E5BBE4BBE0E0E2BBECEFE1BB75
:10010E00EAE6E3BFE0E0E2BFECBFE1EAEFBDEAE022
:10011E00EEBDE0E0EDBDECBDE7BDE6BDEBBDEABD7D
:10012E00E9BDE8BDE2BDE5BDE4BDE3BDE5BFE4BFAD
:10013E00E9BFEAB9E0E8E8B9E0E0E0BFE6B9EDB959
:10014E00E6BF0E943B0209D04F01082C092819F086
:10015E009A928A92A1D0FFCFFFCF45D0042C0528CA
:10016E0021F0E0E1EA930E94D6014AD04F01082C1B
:10017E00092811F0F4010895E0E0F0E008950E94DE
:10018E000C02E03011F4979801C0979A0E940C026D
:10019E006E2FA881B9810E94130211F4969801C0A6
:1001AE00969A0E940C026E2FA881B981E2E0F0E0CF
:1001BE000E94B002DF010E94130211F4DF9801C009
:1001CE00DF9A0E940C026E2FA881B981E4E0F0E064
:1001DE000E94B002DF010E94130211F4DE9801C0EA
:1001EE00DE9A0C94A101EFE0F0E00E9419024E2E6F
:1001FE005524EEE0F0E00E9419026E2E7724089549
:10020E000E94D502AA24BB24E2E1F0E0AE16BF069E
:10021E0034F58501EFE0F0E0EA15FB052CF421E062
:10022E0030E00051104002C020E030E01A930A93F3
:10023E00A6DF022E032A21F0E0E0CD99E1E003C013
:10024E00E0E0CC99E1E0E03031F40E942102E1E0FF
:10025E00F0E0ED93FC93F50131965F01D5CF062CBE
:10026E000728A1F0AA24BB24E2E1F0E0AE16BF06F7
:10027E006CF40E9421020E94D102309719F4E1E041
:10028E00F0E006C0F50131965F01EECFE0E0F0E060
:10029E000E94DA0224960895042C052861F0E0E607
:1002AE00F1E0FA93EA930E94C701E881E05DEA93D8
:1002BE000E94B00101C0FFCF0C94A101E881E07152
:1002CE0011F0AC9A01C0AC98E881E07211F0AD9AD1
:1002DE0001C0AD98E881E07411F0AE9A01C0AE98FD
:1002EE00E881E07811F0AF9A01C0AF9887E08A9567
:1002FE00F1F7AA9A81E18A95F1F7AA9881E18A9598
:10030E00F1F781C0E881EA93D9DFE881E295E883CD
:10031E00E881EA93D3DF87EA8A95F1F774C0E88122
:10032E00F0E0E357FE4FE081A981EA0FEA93EADF9E
:10033E00D980C88022960895E2E00E942902ECE05E
:10034E00EA93E0DFE1E00E942902E0E0CE2EDE2E0D
:10035E000895A881AA3021F0E0919101DE1648F0AF
:10036E00E0E0EA93C394CA92DADFA881AA3009F4D6
:10037E004AC0D394A89AE881EA93C4DFA89843C0F0
:10038E001A93A981BA81ED91A983BA831E2FE03009
:10039E0019F01A93DEDFF5CF188123960895A49AEB
:1003AE00A59AA69AA79AA29AA09AA19AAA98A8984C
:1003BE00A998E881E0939101E058E0938F01E881DC
:1003CE00E054E0939001E4E1F0E0FA93EA930E94A6
:1003DE008D020E9432020E9432020E943202E0E23C
:1003EE00EA936CDF8AEF90E00197F1F7E8E2EA9387
:1003FE0089DFE4E0EA9386DFE5E8EA9383DFE6E06F
:10040E00EA9380DF99DF21960895A881B981E8E00B
:10041E00F0E00E94B0020895E2E0F0E00E94B50222
:10042E00E6270895FA93EA930E94C600E0E0CD997C
:10043E00E1E00895F501A9E6B1E0EE0FFF1FAE0F62
:10044E00BF1F0895EA930E948901E3E0F0E0FA935A
:10045E00EA930C948D02E0E3EA930E9465018AEF21
:10046E0090E00197F1F70895C198C098B99AB8989D
:10047E0015C0B898B998EE270000B09B0895B19BAF
:10048E00089504D0B89A02D0B99AE1E061E107C0AC
:10049E00B89AB99A03D0B998F9DFB89861E26A951B
:1004AE00F1F7089578E0B998F1DFB19BFECFEEDF5A
:1004BE008894B0990894B99AF1DFEE1F7A9599F75E
:1004CE007991772311F4B89801C0B89ADFDFB99803
:1004DE00E5DFB99ADBDFB898D9CFE99178E0EE0F76
:1004EE0010F4B89801C0B89AD9DFB998CFDFB19B94
:1004FE00FECFCCDFB99A7A9591F7B898C7DFB99845
:10050E00CDDFE1E0B099EE27B99AC0CFE991F9912C
:10051E00309639F084EC99E00197F1F7A895319770
:10052E00C9F70895F195E195F0400895002411243E
:10053E0090E1AA0FBB1F001C111C0E1A1F0A18F403
:10054E000E0E1F1E01C0A1609A9599F7FD01D001F4
:10055E00089512D0EBDF0EF4E5DF0895E894B7FFAF
:10056E0004C0A095B09511966894F7FDDBDFDEDF31
:10057E00FD010EF4D7DF0895E894F7FF02C0D2DF35
:10058E006894B7FF06C0A095B095119600F8039435
:10059E0000FA0895ED91FC91119708953A932A93DC
:1005AE001A930A9308953B812A811981088108952F
:00000001FF
