:080000000C943A000C9400007E
:100008000C9400000C9400000C9400000C94000068
:100018000C9400000C9400000C9400000C94000058
:100028000C9400000C9400000C9400000C94000048
:100038000C9400000C9400000C9400000C94000038
:100048000C9400000C9400000C9400001027E803A6
:1000580064000A00010000100001100001002534AE
:10006800640080C0020060016A000000F894EE2776
:10007800ECBBF1E0FBBFEBBFE5BFF8E1F1BDE1BDD3
:100088008DE0A2E0BB27ED938A95E9F780E094E044
:10009800A0E6ED930197E9F7ECE6F0E085919591FC
:1000A800009761F0A591B59105901590BF01F001F9
:1000B80005900D920197E1F7FB01F0CFEFE5EDBF59
:1000C800E4E0EEBFC0E6D1E00C946A00E0E0EBBBF0
:1000D800E0ECEABBE0E0E8BBECE0E7BBE8E0E5BB6E
:1000E800E4BBE0E0E2BBECEFE1BBEAE6E3BFE0E063
:1000F800E2BFECBFE1EAEFBDEAE0EEBDE0E0EDBD56
:10010800ECBDE7BDE6BDEBBDEABDE9BDE8BDE2BDBE
:10011800E5BDE4BDE3BDE5BFE4BFE9BFEAB9E0E89A
:10012800E8B9E0E0E0BFE6B9EDB9E6BF0E947603C2
:10013800E0E1EA930E94EA02DE98DF9896989798A1
:10014800E0E0F0E0FA93EA93FA93EA93E0E0CC99DE
:10015800E1E0F0E0FA93EA9302D0F2CFFFCF2497E0
:10016800E885EA93EF81EA930E94AC02FE01FA93D4
:10017800EA93E6E6F0E0FA93EA93E885F9850E94C7
:10018800DC030E94E90384E00E9445022896FE01F0
:10019800FA93EA930E94DB022A9608951A930A9327
:1001A800AA81BB8112960E94E103309759F1AA8176
:1001B800BB8114960E94E1038F01309761F00230F1
:1001C800E0E01E07F0F0F80131978F01AA81BB81AA
:1001D8001496ED93FC93AA81BB811296ED91FD9143
:1001E8003196FE93EE933197AC81A083AA81BB81AF
:1001F8000E94E103FF232AF0ED91FD913196FE93D1
:10020800EE9306C0AA81BB81EFEFFFEFED93FC935D
:10021800198108812596089526970E94EE0310E01B
:10022800AC85BD85E0E0F0E0ED93FC93EA89FB89BD
:100238003196EA8BFB8B3197E4912E2FE03011F445
:100248000C943D02E12FE03039F4253211F411E02D
:1002580002C00E9434030CC1E130A9F4253219F41C
:100268000E94340304C112E040E000E02D3211F492
:1002780001E0FEC02B3211F44BE2FAC0203211F437
:1002880040E2F6C002C0E23039F450E013E0203317
:1002980011F40068EDC004C0E33011F00C943C0286
:1002A800203310F02A3308F007C0AAE05A9F502DD7
:1002B800E22FE0535E0FDCC0E22FE33649F40E94E0
:1002C8003D03E889F989A481AA930E944303CFC01A
:1002D800E33741F40E943D030E944B030E941F0331
:1002E8001E2F0AC0E03761F40E943D030E944B03B1
:1002F8000E9429031E2F086002600F7730E035C086
:10030800E43611F0E93611F4046002C0E53731F43F
:10031800E4E5F0E0EE83FF8315E00DC0E83511F465
:10032800086004C0E83711F00C943B02EEE5F0E0F9
:10033800EE83FF8314E002FF14C00E943D030E9475
:100348005503AB85AA233AF4EA85FB850E94D803B6
:10035800EA87FB874DE2403011F01F5F01C00B7F39
:1003680004C00E943D030E94550300FD11C01517EB
:1003780078F407FF08C002FF04C00B7F242F115038
:1003880001C020E301C020E20E9434035150EFCFA6
:10039800312F01FF17C03030A1F003FF06C0EE81F6
:1003A800FF812591EE83FF8305C0AE81BF812D912A
:1003B800AE83BF830E943403503009F0515031504E
:1003C800EACF4BC020E3EE81FF810E94E503E88776
:1003D800F987EE81FF813296EE83FF83E885F98500
:1003E800AA85BB85AE17BF0750F02F5FA885B985D2
:1003F800EA85FB85EA1BFB0BEA87FB87EFCF2A33ED
:1004080028F003FF02C0295F01C0295D04FD1AC05E
:10041800213320F4A885B985119709F409C0531729
:1004280010F000FF01C013C020E207FF0BC020E35B
:10043800006102FF07C00B7F4A930E9443035030BC
:1004480009F051500E943403503009F05150315096
:10045800A885B985129708F0B5CF00FF08C05030BD
:1004680031F05150E0E2EA930E944303F8CF10E0E4
:10047800DDCEAC85BD850E94E1030E94F50364963C
:100488000895FF92F82E26970E94F0030E945D03BC
:10049800309719F4EFEFFFEF25C0DE0116960E94A2
:1004A800D4038D010E945D03EE83FF83E0E0E887BB
:1004B800E987DE011A960E94D4030E94E103FA93A9
:1004C800EA931A930A93E2EDF0E0FA93EA93FE01B5
:1004D8003A96FA93EA93A0DE9F01AE81BF81E0E0ED
:1004E800EC93F9010E94F7032A96FF900895E8819A
:1004F800E07111F0AC9A01C0AC98E881E07211F09B
:10050800AD9A01C0AD98E881E07411F0AE9A01C0CF
:10051800AE98E881E07811F0AF9A01C0AF9887E013
:100528008A95F1F7AA9A81E18A95F1F7AA9881E16B
:100538008A95F1F77EC0E881EA93D9DFE881E295F0
:10054800E883E881EA93D3DF87EA8A95F1F771C0F7
:10055800E881F0E0E05AFE4FE081A981EA0FEA93D2
:10056800EADF5980488022960895E2E00E946403F9
:10057800ECE0EA93E0DFE1E00E946403E0E04E2E65
:100588005E2E0895A881AA3011F0571448F0E0E0D3
:10059800EA9343944A92DCDFA881AA3009F449C05F
:1005A8005394A89AE881EA93C6DFA89842C01A93A0
:1005B800A981BA81ED91A983BA831E2FE03019F081
:1005C8001A93E0DFF5CF188123960895A49AA59A87
:1005D800A69AA79AA29AA09AA19AAA98A898A9981E
:1005E8007880E881E058E0936201E881E054E09384
:1005F8006301E4E1F0E0FA93EA930E94C8030E94E1
:100608006D030E946D030E946D03E0E2EA936FDFC1
:100618008AEF90E00197F1F7E8E2EA938CDFE4E0F3
:10062800EA9389DFE5E8EA9386DFE6E0EA9383DF89
:100638009CDF21960895A991B991EE27FF276D9126
:10064800662311F03196FBCF0895AA27BB27E991BD
:10065800F9910590002011F01196FBCFFD01089546
:100668002A93ED85FE85FA93EA93E989FA89099533
:100678000895E889F9893497E88BF98B0895ED8511
:10068800FE85FA93EA93E989FA8909950895A88974
:10069800B98914960E94E103EE83FF83FA93EA93E3
:1006A8000895A889B98914960E94E103EA87FB870F
:1006B8000895DE011C960E94D4030E94E103089568
:1006C800EA930E949F02E3E0F0E0FA93EA930C9425
:1006D800C803E0E3EA930E947B028AEF90E0019767
:1006E800F1F70895C198C098B99AB89815C0B89804
:1006F800B998EE270000B09B0895B19B089504D0E7
:10070800B89A02D0B99AE1E061E107C0B89AB99AFB
:1007180003D0B998F9DFB89861E26A95F1F70895BE
:1007280078E0B998F1DFB19BFECFEEDF8894B099FD
:100738000894B99AF1DFEE1F7A9599F779917723A2
:1007480011F4B89801C0B89ADFDFB998E5DFB99A13
:10075800DBDFB898D9CFE99178E0EE0F10F4B898BC
:1007680001C0B89AD9DFB998CFDFB19BFECFCCDFF3
:10077800B99A7A9591F7B898C7DFB998CDDFE1E0D3
:10078800B099EE27B99AC0CFE991F991309639F02E
:1007980084EC99E00197F1F7A8953197C9F7089586
:1007A8000024AF0DB01D0895F195E195F04008952E
:1007B8006F2F660F660B762F0895ED91FC911197B8
:1007C80008950590F491E02D08957A936A93FA9329
:1007D800EA9308955A934A933A932A931A930A9359
:1007E80008955D814C813B812A8119810881089592
:00000001FF
