:020000000C945E
:1000020059000C9400000C9400000C9400000C9415
:1000120000000C9400000C9400000C9400000C945E
:1000220000000C9400000C9400000C9400000C944E
:1000320000000C9400000C9400000C9400000C943E
:1000420000000C9400000C9400000C9400000C942E
:1000520000001027E80364000A00010000100001FC
:100062001000010001000100000025640042554714
:10007200206F6E3A2000646F6E65000001002D4E05
:10008200414E00494E46000080C0010069016600F1
:1000920001008D016800090060016F000200040088
:1000A2006A000100BF017E000200C3018A00000055
:1000B200F894EE27ECBBF1E0FBBFEBBFE5BFF8E144
:1000C200F1BDE1BD8DE0A2E0BB27ED938A95E9F792
:1000D20080E094E0A0E6ED930197E9F7ECE8F0E028
:1000E20085919591009761F0A591B5910590159034
:1000F200BF01F00105900D920197E1F7FB01F0CFEE
:10010200EFE5EDBFE4E0EEBFC0E6D1E00C9489007C
:10011200E0E3EBBBE0ECEABBE0E0E8BBECE0E7BB32
:10012200E8E0E5BBE4BBE0E0E2BBECEFE1BBEAE622
:10013200E3BFE0E0E2BFECBFE1EAEFBDEAE0EEBD23
:10014200E0E0EDBDECBDE7BDE6BDEBBDEABDE9BD5E
:10015200E8BDE2BDE5BDE4BDE3BDE5BFE4BFE9BF87
:10016200EAB9E0E8E8B9E0E0E0BFE6B9EDB9E6BF38
:100172000E94A70226D03F01062C072821F07A927E
:100182006A920E945501E0E1EA930E9430028824BB
:1001920099240E94660234F40E946B02F4013196A3
:1001A2004F01F7CF882499240E94660234F40E94FA
:1001B2007702F40131964F01F7CF0E946701FDCF1C
:1001C200FFCF0E942401042C052821F0E0E1EA93EC
:1001D2000E9430020E942E013F01062C072811F0D6
:1001E200F3010895E0E0F0E00895E881F881E795F1
:1001F200E795E795EF27E79518F0DE980C94020152
:10020200DE9AEF2FE795E795EF27E795E79518F048
:10021200DF980C940D01DF9AEF2FE795EF27E79512
:10022200E795E79518F096980C941801969AEF2F97
:10023200E795E795E795E79518F097980C942201D2
:10024200979A0C94EF01E9E0F0E00E948302E0E06B
:10025200CD99E1E04E2E552408951A930A938824ED
:1002620099240E946602ECF4182DEFE0F0E0E81504
:10027200F9051CF40E94870201C000E00E948D0271
:10028200003021F0E0E0CD99E1E003C0E0E0CC995C
:10029200E1E0E03011F40E947702F40131964F015F
:1002A200E0CFE0E0F0E057C0042C052861F0E0E682
:1002B200F1E0FA93EA930E942102E881E05DEA9379
:1002C2000E94000201C0FFCF0C94EF011A930A931F
:1002D200E0E0EA93EA930E94E001882499240E94D4
:1002E2006602CCF5F401A9E6B1E00E9490020E94F8
:1002F2000503309719F40E946B0229C0182DEFE014
:10030200F0E0E815F9051CF40E94870201C000E044
:100312000E948D02F401ADE8B1E00E949002E02F4C
:10032200F0E0309721F0E0E0CD99E1E003C0E0E0B9
:10033200CC99E1E0F0E0ED93FC93F401ADE8B1E09B
:100342000E949002EC91E05DEA930E940002F401A7
:1003520031964F01C4CF099119910895E881E07156
:1003620011F0AC9A01C0AC98E881E07211F0AD9A3C
:1003720001C0AD98E881E07411F0AE9A01C0AE9868
:10038200E881E07811F0AF9A01C0AF9887E08A95D2
:10039200F1F7AA9A81E18A95F1F7AA9881E18A9503
:1003A200F1F791C0E881EA93D9DFE881E295E88329
:1003B200E881EA93D3DF87EA8A95F1F784C0E8817E
:1003C200F0E0ED53FE4FE081A981EA0FEA93EADF04
:1003D200E981E093C701E881E093C801229608957C
:1003E200E2E00E949502ECE0EA93DCDFE1E00E94A9
:1003F2009502E0E0E093C801E093C7010895A88167
:10040200AA3031F0E091C901A091C701AE1768F09E
:10041200E0E0EA93E091C801EF5FE093C801EA935C
:10042200CEDFA881AA3009F44EC0E091C701EF5F88
:10043200E093C701A89AE881EA93B4DFA89843C081
:100442001A93A981BA81ED91A983BA831E2FE03054
:1004520019F01A93D4DFF5CF188123960895A49A40
:10046200A59AA69AA79AA29AA09AA19AAA98A89897
:10047200A998E881E093C901E058E093C501E881B9
:10048200E054E093C601E4E1F0E0FA93EA930E94BB
:10049200F9020E949E020E949E020E949E02E0E2D7
:1004A200EA935CDF8AEF90E00197F1F7E8E2EA93E2
:1004B20079DFE4E0EA9376DFE5E8EA9373DFE6E0EA
:1004C200EA9370DF8DDF21960895E2E1F0E08E1667
:1004D2009F060895F401ADE8B1E0EE0FFF1FAE0FE5
:1004E200BF1FE1E0F0E0ED93FC930895F401A9E66B
:1004F200B1E0EE0FFF1FAE0FBF1FE1E0F0E0ED93A2
:10050200FC930895FA93EA930C94F60001E0E12F2C
:10051200F0E070971E2F0895E12FF0E0F3CFEE0F79
:10052200FF1FAE0FBF1F0895EA930E94D301E3E0BD
:10053200F0E0FA93EA930C94F902E0E3EA930E9462
:10054200AF018AEF90E00197F1F70895C198C09842
:10055200B99AB89815C0B898B998EE270000B09B20
:100562000895B19B089504D0B89A02D0B99AE1E0F7
:1005720061E107C0B89AB99A03D0B998F9DFB8987F
:1005820061E26A95F1F7089578E0B998F1DFB19BDD
:10059200FECFEEDF8894B0990894B99AF1DFEE1F8E
:1005A2007A9599F77991772311F4B89801C0B89A9E
:1005B200DFDFB998E5DFB99ADBDFB898D9CFE991E7
:1005C20078E0EE0F10F4B89801C0B89AD9DFB99864
:1005D200CFDFB19BFECFCCDFB99A7A9591F7B8986D
:1005E200C7DFB998CDDFE1E0B099EE27B99AC0CF65
:1005F200E991F991309639F084EC99E00197F1F79D
:10060200A8953197C9F70895ED91FC911197089536
:00000001FF
